{
  "_format": "hh-sol-artifact-1",
  "contractName": "Authentification",
  "sourceName": "contracts/Authentification.sol",
  "abi": [
    {
      "anonymous": false,
      "inputs": [
        {
          "indexed": false,
          "internalType": "uint256",
          "name": "id",
          "type": "uint256"
        },
        {
          "indexed": false,
          "internalType": "string",
          "name": "etud_nom",
          "type": "string"
        },
        {
          "indexed": false,
          "internalType": "string",
          "name": "etud_prenom",
          "type": "string"
        },
        {
          "indexed": false,
          "internalType": "uint256",
          "name": "matricule",
          "type": "uint256"
        },
        {
          "indexed": false,
          "internalType": "string",
          "name": "specialite",
          "type": "string"
        },
        {
          "indexed": false,
          "internalType": "string",
          "name": "niveau",
          "type": "string"
        },
        {
          "indexed": false,
          "internalType": "address",
          "name": "owner",
          "type": "address"
        },
        {
          "indexed": false,
          "internalType": "bool",
          "name": "valide",
          "type": "bool"
        },
        {
          "indexed": false,
          "internalType": "bytes32",
          "name": "hash_diplome",
          "type": "bytes32"
        }
      ],
      "name": "DiplomeCreated",
      "type": "event"
    },
    {
      "anonymous": false,
      "inputs": [
        {
          "indexed": false,
          "internalType": "uint256",
          "name": "id",
          "type": "uint256"
        },
        {
          "indexed": false,
          "internalType": "string",
          "name": "etud_nom",
          "type": "string"
        },
        {
          "indexed": false,
          "internalType": "string",
          "name": "etud_prenom",
          "type": "string"
        },
        {
          "indexed": false,
          "internalType": "uint256",
          "name": "matricule",
          "type": "uint256"
        },
        {
          "indexed": false,
          "internalType": "string",
          "name": "specialite",
          "type": "string"
        },
        {
          "indexed": false,
          "internalType": "string",
          "name": "niveau",
          "type": "string"
        },
        {
          "indexed": false,
          "internalType": "address",
          "name": "owner",
          "type": "address"
        },
        {
          "indexed": false,
          "internalType": "bool",
          "name": "valide",
          "type": "bool"
        },
        {
          "indexed": false,
          "internalType": "bytes32",
          "name": "hash_diplome",
          "type": "bytes32"
        }
      ],
      "name": "DiplomeValide",
      "type": "event"
    },
    {
      "anonymous": false,
      "inputs": [
        {
          "indexed": false,
          "internalType": "uint256",
          "name": "s",
          "type": "uint256"
        }
      ],
      "name": "dipdel",
      "type": "event"
    },
    {
      "anonymous": false,
      "inputs": [
        {
          "indexed": false,
          "internalType": "uint256",
          "name": "id",
          "type": "uint256"
        },
        {
          "indexed": false,
          "internalType": "string",
          "name": "etud_nom",
          "type": "string"
        },
        {
          "indexed": false,
          "internalType": "string",
          "name": "etud_prenom",
          "type": "string"
        },
        {
          "indexed": false,
          "internalType": "uint256",
          "name": "matricule",
          "type": "uint256"
        },
        {
          "indexed": false,
          "internalType": "string",
          "name": "specialite",
          "type": "string"
        },
        {
          "indexed": false,
          "internalType": "string",
          "name": "niveau",
          "type": "string"
        },
        {
          "indexed": false,
          "internalType": "address",
          "name": "owner",
          "type": "address"
        },
        {
          "indexed": false,
          "internalType": "bool",
          "name": "valide",
          "type": "bool"
        },
        {
          "indexed": false,
          "internalType": "bytes32",
          "name": "hash_diplome",
          "type": "bytes32"
        }
      ],
      "name": "dipfound",
      "type": "event"
    },
    {
      "inputs": [
        {
          "internalType": "string",
          "name": "_etud_nom",
          "type": "string"
        },
        {
          "internalType": "string",
          "name": "_etud_prenom",
          "type": "string"
        },
        {
          "internalType": "uint256",
          "name": "_matricule",
          "type": "uint256"
        },
        {
          "internalType": "string",
          "name": "_specialite",
          "type": "string"
        },
        {
          "internalType": "string",
          "name": "_niveau",
          "type": "string"
        }
      ],
      "name": "createDiplome",
      "outputs": [],
      "stateMutability": "nonpayable",
      "type": "function"
    },
    {
      "inputs": [
        {
          "internalType": "uint256",
          "name": "p",
          "type": "uint256"
        }
      ],
      "name": "delDiplome",
      "outputs": [
        {
          "internalType": "bool",
          "name": "",
          "type": "bool"
        }
      ],
      "stateMutability": "nonpayable",
      "type": "function"
    },
    {
      "inputs": [],
      "name": "diplomeCount",
      "outputs": [
        {
          "internalType": "uint256",
          "name": "",
          "type": "uint256"
        }
      ],
      "stateMutability": "view",
      "type": "function"
    },
    {
      "inputs": [
        {
          "internalType": "uint256",
          "name": "",
          "type": "uint256"
        }
      ],
      "name": "diplomes",
      "outputs": [
        {
          "internalType": "uint256",
          "name": "id",
          "type": "uint256"
        },
        {
          "internalType": "string",
          "name": "etud_nom",
          "type": "string"
        },
        {
          "internalType": "string",
          "name": "etud_prenom",
          "type": "string"
        },
        {
          "internalType": "uint256",
          "name": "matricule",
          "type": "uint256"
        },
        {
          "internalType": "string",
          "name": "specialite",
          "type": "string"
        },
        {
          "internalType": "string",
          "name": "niveau",
          "type": "string"
        },
        {
          "internalType": "address",
          "name": "owner",
          "type": "address"
        },
        {
          "internalType": "bool",
          "name": "valide",
          "type": "bool"
        },
        {
          "internalType": "bytes32",
          "name": "hash_diplome",
          "type": "bytes32"
        }
      ],
      "stateMutability": "view",
      "type": "function"
    },
    {
      "inputs": [
        {
          "internalType": "uint256",
          "name": "_id",
          "type": "uint256"
        }
      ],
      "name": "getDipInfo",
      "outputs": [
        {
          "components": [
            {
              "internalType": "uint256",
              "name": "id",
              "type": "uint256"
            },
            {
              "internalType": "string",
              "name": "etud_nom",
              "type": "string"
            },
            {
              "internalType": "string",
              "name": "etud_prenom",
              "type": "string"
            },
            {
              "internalType": "uint256",
              "name": "matricule",
              "type": "uint256"
            },
            {
              "internalType": "string",
              "name": "specialite",
              "type": "string"
            },
            {
              "internalType": "string",
              "name": "niveau",
              "type": "string"
            },
            {
              "internalType": "address",
              "name": "owner",
              "type": "address"
            },
            {
              "internalType": "bool",
              "name": "valide",
              "type": "bool"
            },
            {
              "internalType": "bytes32",
              "name": "hash_diplome",
              "type": "bytes32"
            }
          ],
          "internalType": "struct Authentification.Diplome",
          "name": "",
          "type": "tuple"
        }
      ],
      "stateMutability": "view",
      "type": "function"
    },
    {
      "inputs": [
        {
          "internalType": "uint256",
          "name": "id",
          "type": "uint256"
        }
      ],
      "name": "getHash",
      "outputs": [
        {
          "internalType": "bytes32",
          "name": "",
          "type": "bytes32"
        }
      ],
      "stateMutability": "view",
      "type": "function"
    },
    {
      "inputs": [
        {
          "internalType": "uint256",
          "name": "_id",
          "type": "uint256"
        },
        {
          "internalType": "string",
          "name": "etud_nom",
          "type": "string"
        }
      ],
      "name": "hash",
      "outputs": [
        {
          "internalType": "bytes32",
          "name": "",
          "type": "bytes32"
        }
      ],
      "stateMutability": "pure",
      "type": "function"
    },
    {
      "inputs": [],
      "name": "name",
      "outputs": [
        {
          "internalType": "string",
          "name": "",
          "type": "string"
        }
      ],
      "stateMutability": "view",
      "type": "function"
    },
    {
      "inputs": [
        {
          "internalType": "bytes32",
          "name": "_matricule",
          "type": "bytes32"
        }
      ],
      "name": "searchByHash",
      "outputs": [
        {
          "internalType": "uint256",
          "name": "ind",
          "type": "uint256"
        }
      ],
      "stateMutability": "nonpayable",
      "type": "function"
    },
    {
      "inputs": [
        {
          "internalType": "uint256",
          "name": "_id",
          "type": "uint256"
        }
      ],
      "name": "searchDiplome",
      "outputs": [
        {
          "internalType": "bool",
          "name": "",
          "type": "bool"
        }
      ],
      "stateMutability": "view",
      "type": "function"
    },
    {
      "inputs": [
        {
          "internalType": "uint256",
          "name": "p",
          "type": "uint256"
        }
      ],
      "name": "validerDiplome",
      "outputs": [
        {
          "internalType": "bool",
          "name": "",
          "type": "bool"
        }
      ],
      "stateMutability": "nonpayable",
      "type": "function"
    }
  ],
  "bytecode": "0x60806040526000805560006001556040518060400160405280601981526020017f41757468656e74696669636174696f6e204469706c6f6d657300000000000000815250600290805190602001906200005a9291906200006f565b503480156200006857600080fd5b5062000184565b8280546200007d906200014e565b90600052602060002090601f016020900481019282620000a15760008555620000ed565b82601f10620000bc57805160ff1916838001178555620000ed565b82800160010185558215620000ed579182015b82811115620000ec578251825591602001919060010190620000cf565b5b509050620000fc919062000100565b5090565b5b808211156200011b57600081600090555060010162000101565b5090565b7f4e487b7100000000000000000000000000000000000000000000000000000000600052602260045260246000fd5b600060028204905060018216806200016757607f821691505b602082108114156200017e576200017d6200011f565b5b50919050565b61216c80620001946000396000f3fe608060405234801561001057600080fd5b50600436106100a95760003560e01c80632e7dc3eb116100715780632e7dc3eb1461017a5780636b2fafa9146101aa578063768ceb9a146101da57806377c2f30f14610212578063b6eb207714610242578063ddc5a1731461025e576100a9565b806305f554ca146100ae57806306fdde03146100de5780630ffd0a4a146100fc5780631ce3b82a1461012c578063266650e31461015c575b600080fd5b6100c860048036038101906100c39190611753565b61028e565b6040516100d5919061179b565b60405180910390f35b6100e66104b5565b6040516100f3919061184f565b60405180910390f35b610116600480360381019061011191906118a7565b610543565b60405161012391906118e3565b60405180910390f35b61014660048036038101906101419190611a33565b6106d8565b6040516101539190611a9e565b60405180910390f35b61016461070b565b60405161017191906118e3565b60405180910390f35b610194600480360381019061018f9190611753565b610711565b6040516101a1919061179b565b60405180910390f35b6101c460048036038101906101bf9190611753565b610bdf565b6040516101d19190611a9e565b60405180910390f35b6101f460048036038101906101ef9190611753565b610bff565b60405161020999989796959493929190611afa565b60405180910390f35b61022c60048036038101906102279190611753565b610e9a565b6040516102399190611d03565b60405180910390f35b61025c60048036038101906102579190611d25565b611265565b005b61027860048036038101906102739190611753565b6114b2565b604051610285919061179b565b60405180910390f35b60008060005b6001548110156102d35783600360008381526020019081526020016000206000015414156102c0578091505b80806102cb90611e3f565b915050610294565b5060008190505b60005481101561045e57600360006001846102f59190611e88565b81526020019081526020016000206003600084815260200190815260200160002060008201548160000155600182018160010190805461033490611f0d565b61033f929190611572565b50600282018160020190805461035490611f0d565b61035f929190611572565b5060038201548160030155600482018160040190805461037e90611f0d565b610389929190611572565b50600582018160050190805461039e90611f0d565b6103a9929190611572565b506006820160009054906101000a900473ffffffffffffffffffffffffffffffffffffffff168160060160006101000a81548173ffffffffffffffffffffffffffffffffffffffff021916908373ffffffffffffffffffffffffffffffffffffffff1602179055506006820160149054906101000a900460ff168160060160146101000a81548160ff02191690831515021790555060078201548160070155905050808061045690611e3f565b9150506102da565b50600160005461046e9190611f3f565b6000819055507f10efd56879a6371682d7636de1e0be26bd563a23aa3821585833b2c2f0a9a363816040516104a391906118e3565b60405180910390a16001915050919050565b600280546104c290611f0d565b80601f01602080910402602001604051908101604052809291908181526020018280546104ee90611f0d565b801561053b5780601f106105105761010080835404028352916020019161053b565b820191906000526020600020905b81548152906001019060200180831161051e57829003601f168201915b505050505081565b600080600190505b600160005461055a9190611e88565b8110156106d15782600360008381526020019081526020016000206007015414156106be577f986c71db1684a5050564dbb17b4b73a40fa6436b4dc57d1572f3bba16e94f12260036000838152602001908152602001600020600001546003600084815260200190815260200160002060010160036000858152602001908152602001600020600201600360008681526020019081526020016000206003015460036000878152602001908152602001600020600401600360008881526020019081526020016000206005016003600089815260200190815260200160002060060160009054906101000a900473ffffffffffffffffffffffffffffffffffffffff16600360008a815260200190815260200160002060060160149054906101000a900460ff16600360008b8152602001908152602001600020600701546040516106ad99989796959493929190612008565b60405180910390a1809150506106d3565b80806106c990611e3f565b91505061054b565b505b919050565b600082826040516020016106ed92919061210e565b60405160208183030381529060405280519060200120905092915050565b60005481565b60008060005b600154811015610756578360036000838152602001908152602001600020600001541415610743578091505b808061074e90611e3f565b915050610717565b50600060036000838152602001908152602001600020604051806101200160405290816000820154815260200160018201805461079290611f0d565b80601f01602080910402602001604051908101604052809291908181526020018280546107be90611f0d565b801561080b5780601f106107e05761010080835404028352916020019161080b565b820191906000526020600020905b8154815290600101906020018083116107ee57829003601f168201915b5050505050815260200160028201805461082490611f0d565b80601f016020809104026020016040519081016040528092919081815260200182805461085090611f0d565b801561089d5780601f106108725761010080835404028352916020019161089d565b820191906000526020600020905b81548152906001019060200180831161088057829003601f168201915b50505050508152602001600382015481526020016004820180546108c090611f0d565b80601f01602080910402602001604051908101604052809291908181526020018280546108ec90611f0d565b80156109395780601f1061090e57610100808354040283529160200191610939565b820191906000526020600020905b81548152906001019060200180831161091c57829003601f168201915b5050505050815260200160058201805461095290611f0d565b80601f016020809104026020016040519081016040528092919081815260200182805461097e90611f0d565b80156109cb5780601f106109a0576101008083540402835291602001916109cb565b820191906000526020600020905b8154815290600101906020018083116109ae57829003601f168201915b505050505081526020016006820160009054906101000a900473ffffffffffffffffffffffffffffffffffffffff1673ffffffffffffffffffffffffffffffffffffffff1673ffffffffffffffffffffffffffffffffffffffff1681526020016006820160149054906101000a900460ff16151515158152602001600782015481525050905060018160e00190151590811515815250508060036000848152602001908152602001600020600082015181600001556020820151816001019080519060200190610a9c9291906115ff565b506040820151816002019080519060200190610ab99291906115ff565b50606082015181600301556080820151816004019080519060200190610ae09291906115ff565b5060a0820151816005019080519060200190610afd9291906115ff565b5060c08201518160060160006101000a81548173ffffffffffffffffffffffffffffffffffffffff021916908373ffffffffffffffffffffffffffffffffffffffff16021790555060e08201518160060160146101000a81548160ff02191690831515021790555061010082015181600701559050507facef5005c5182db6bc4fec86e70906347b37de492a7cde438374df20b722175a8482602001518360400151846060015185608001518660a00151336001896101000151604051610bcc99989796959493929190611afa565b60405180910390a1600192505050919050565b600060036000838152602001908152602001600020600701549050919050565b6003602052806000526040600020600091509050806000015490806001018054610c2890611f0d565b80601f0160208091040260200160405190810160405280929190818152602001828054610c5490611f0d565b8015610ca15780601f10610c7657610100808354040283529160200191610ca1565b820191906000526020600020905b815481529060010190602001808311610c8457829003601f168201915b505050505090806002018054610cb690611f0d565b80601f0160208091040260200160405190810160405280929190818152602001828054610ce290611f0d565b8015610d2f5780601f10610d0457610100808354040283529160200191610d2f565b820191906000526020600020905b815481529060010190602001808311610d1257829003601f168201915b505050505090806003015490806004018054610d4a90611f0d565b80601f0160208091040260200160405190810160405280929190818152602001828054610d7690611f0d565b8015610dc35780601f10610d9857610100808354040283529160200191610dc3565b820191906000526020600020905b815481529060010190602001808311610da657829003601f168201915b505050505090806005018054610dd890611f0d565b80601f0160208091040260200160405190810160405280929190818152602001828054610e0490611f0d565b8015610e515780601f10610e2657610100808354040283529160200191610e51565b820191906000526020600020905b815481529060010190602001808311610e3457829003601f168201915b5050505050908060060160009054906101000a900473ffffffffffffffffffffffffffffffffffffffff16908060060160149054906101000a900460ff16908060070154905089565b610ea2611685565b60006001600054610eb39190611e88565b905060005b600154811015610f6657836003600083815260200190815260200160002060000154148015610f4a5750600073ffffffffffffffffffffffffffffffffffffffff166003600083815260200190815260200160002060060160009054906101000a900473ffffffffffffffffffffffffffffffffffffffff1673ffffffffffffffffffffffffffffffffffffffff1614155b15610f53578091505b8080610f5e90611e3f565b915050610eb8565b50600360008281526020019081526020016000206040518061012001604052908160008201548152602001600182018054610fa090611f0d565b80601f0160208091040260200160405190810160405280929190818152602001828054610fcc90611f0d565b80156110195780601f10610fee57610100808354040283529160200191611019565b820191906000526020600020905b815481529060010190602001808311610ffc57829003601f168201915b5050505050815260200160028201805461103290611f0d565b80601f016020809104026020016040519081016040528092919081815260200182805461105e90611f0d565b80156110ab5780601f10611080576101008083540402835291602001916110ab565b820191906000526020600020905b81548152906001019060200180831161108e57829003601f168201915b50505050508152602001600382015481526020016004820180546110ce90611f0d565b80601f01602080910402602001604051908101604052809291908181526020018280546110fa90611f0d565b80156111475780601f1061111c57610100808354040283529160200191611147565b820191906000526020600020905b81548152906001019060200180831161112a57829003601f168201915b5050505050815260200160058201805461116090611f0d565b80601f016020809104026020016040519081016040528092919081815260200182805461118c90611f0d565b80156111d95780601f106111ae576101008083540402835291602001916111d9565b820191906000526020600020905b8154815290600101906020018083116111bc57829003601f168201915b505050505081526020016006820160009054906101000a900473ffffffffffffffffffffffffffffffffffffffff1673ffffffffffffffffffffffffffffffffffffffff1673ffffffffffffffffffffffffffffffffffffffff1681526020016006820160149054906101000a900460ff16151515158152602001600782015481525050915050919050565b600085511161127357600080fd5b600084511161128157600080fd5b6000831161128e57600080fd5b600082511161129c57600080fd5b60008151116112aa57600080fd5b60006112b8600154876106d8565b905060405180610120016040528060015481526020018781526020018681526020018581526020018481526020018381526020013373ffffffffffffffffffffffffffffffffffffffff16815260200160001515815260200182815250600360008054815260200190815260200160002060008201518160000155602082015181600101908051906020019061134f9291906115ff565b50604082015181600201908051906020019061136c9291906115ff565b506060820151816003015560808201518160040190805190602001906113939291906115ff565b5060a08201518160050190805190602001906113b09291906115ff565b5060c08201518160060160006101000a81548173ffffffffffffffffffffffffffffffffffffffff021916908373ffffffffffffffffffffffffffffffffffffffff16021790555060e08201518160060160146101000a81548160ff021916908315150217905550610100820151816007015590505060008081548092919061143890611e3f565b91905055506001600081548092919061145090611e3f565b91905055507f9175db86c9a0683593585b8a74bbe7c173d32ca841eef0ed809e0f1f170b57f8600180546114849190611f3f565b8787878787336000896040516114a299989796959493929190611afa565b60405180910390a1505050505050565b60008060005b6001548110156114f75783600360008381526020019081526020016000206000015414156114e4578091505b80806114ef90611e3f565b9150506114b8565b50600073ffffffffffffffffffffffffffffffffffffffff166003600083815260200190815260200160002060060160009054906101000a900473ffffffffffffffffffffffffffffffffffffffff1673ffffffffffffffffffffffffffffffffffffffff16141561156857600080fd5b6001915050919050565b82805461157e90611f0d565b90600052602060002090601f0160209004810192826115a057600085556115ee565b82601f106115b157805485556115ee565b828001600101855582156115ee57600052602060002091601f016020900482015b828111156115ed5782548255916001019190600101906115d2565b5b5090506115fb91906116ec565b5090565b82805461160b90611f0d565b90600052602060002090601f01602090048101928261162d5760008555611674565b82601f1061164657805160ff1916838001178555611674565b82800160010185558215611674579182015b82811115611673578251825591602001919060010190611658565b5b50905061168191906116ec565b5090565b604051806101200160405280600081526020016060815260200160608152602001600081526020016060815260200160608152602001600073ffffffffffffffffffffffffffffffffffffffff168152602001600015158152602001600080191681525090565b5b808211156117055760008160009055506001016116ed565b5090565b6000604051905090565b600080fd5b600080fd5b6000819050919050565b6117308161171d565b811461173b57600080fd5b50565b60008135905061174d81611727565b92915050565b60006020828403121561176957611768611713565b5b60006117778482850161173e565b91505092915050565b60008115159050919050565b61179581611780565b82525050565b60006020820190506117b0600083018461178c565b92915050565b600081519050919050565b600082825260208201905092915050565b60005b838110156117f05780820151818401526020810190506117d5565b838111156117ff576000848401525b50505050565b6000601f19601f8301169050919050565b6000611821826117b6565b61182b81856117c1565b935061183b8185602086016117d2565b61184481611805565b840191505092915050565b600060208201905081810360008301526118698184611816565b905092915050565b6000819050919050565b61188481611871565b811461188f57600080fd5b50565b6000813590506118a18161187b565b92915050565b6000602082840312156118bd576118bc611713565b5b60006118cb84828501611892565b91505092915050565b6118dd8161171d565b82525050565b60006020820190506118f860008301846118d4565b92915050565b600080fd5b600080fd5b7f4e487b7100000000000000000000000000000000000000000000000000000000600052604160045260246000fd5b61194082611805565b810181811067ffffffffffffffff8211171561195f5761195e611908565b5b80604052505050565b6000611972611709565b905061197e8282611937565b919050565b600067ffffffffffffffff82111561199e5761199d611908565b5b6119a782611805565b9050602081019050919050565b82818337600083830152505050565b60006119d66119d184611983565b611968565b9050828152602081018484840111156119f2576119f1611903565b5b6119fd8482856119b4565b509392505050565b600082601f830112611a1a57611a196118fe565b5b8135611a2a8482602086016119c3565b91505092915050565b60008060408385031215611a4a57611a49611713565b5b6000611a588582860161173e565b925050602083013567ffffffffffffffff811115611a7957611a78611718565b5b611a8585828601611a05565b9150509250929050565b611a9881611871565b82525050565b6000602082019050611ab36000830184611a8f565b92915050565b600073ffffffffffffffffffffffffffffffffffffffff82169050919050565b6000611ae482611ab9565b9050919050565b611af481611ad9565b82525050565b600061012082019050611b10600083018c6118d4565b8181036020830152611b22818b611816565b90508181036040830152611b36818a611816565b9050611b4560608301896118d4565b8181036080830152611b578188611816565b905081810360a0830152611b6b8187611816565b9050611b7a60c0830186611aeb565b611b8760e083018561178c565b611b95610100830184611a8f565b9a9950505050505050505050565b611bac8161171d565b82525050565b600082825260208201905092915050565b6000611bce826117b6565b611bd88185611bb2565b9350611be88185602086016117d2565b611bf181611805565b840191505092915050565b611c0581611ad9565b82525050565b611c1481611780565b82525050565b611c2381611871565b82525050565b600061012083016000830151611c426000860182611ba3565b5060208301518482036020860152611c5a8282611bc3565b91505060408301518482036040860152611c748282611bc3565b9150506060830151611c896060860182611ba3565b5060808301518482036080860152611ca18282611bc3565b91505060a083015184820360a0860152611cbb8282611bc3565b91505060c0830151611cd060c0860182611bfc565b5060e0830151611ce360e0860182611c0b565b50610100830151611cf8610100860182611c1a565b508091505092915050565b60006020820190508181036000830152611d1d8184611c29565b905092915050565b600080600080600060a08688031215611d4157611d40611713565b5b600086013567ffffffffffffffff811115611d5f57611d5e611718565b5b611d6b88828901611a05565b955050602086013567ffffffffffffffff811115611d8c57611d8b611718565b5b611d9888828901611a05565b9450506040611da98882890161173e565b935050606086013567ffffffffffffffff811115611dca57611dc9611718565b5b611dd688828901611a05565b925050608086013567ffffffffffffffff811115611df757611df6611718565b5b611e0388828901611a05565b9150509295509295909350565b7f4e487b7100000000000000000000000000000000000000000000000000000000600052601160045260246000fd5b6000611e4a8261171d565b91507fffffffffffffffffffffffffffffffffffffffffffffffffffffffffffffffff821415611e7d57611e7c611e10565b5b600182019050919050565b6000611e938261171d565b9150611e9e8361171d565b9250827fffffffffffffffffffffffffffffffffffffffffffffffffffffffffffffffff03821115611ed357611ed2611e10565b5b828201905092915050565b7f4e487b7100000000000000000000000000000000000000000000000000000000600052602260045260246000fd5b60006002820490506001821680611f2557607f821691505b60208210811415611f3957611f38611ede565b5b50919050565b6000611f4a8261171d565b9150611f558361171d565b925082821015611f6857611f67611e10565b5b828203905092915050565b60008190508160005260206000209050919050565b60008154611f9581611f0d565b611f9f81866117c1565b94506001821660008114611fba5760018114611fcc57611fff565b60ff1983168652602086019350611fff565b611fd585611f73565b60005b83811015611ff757815481890152600182019150602081019050611fd8565b808801955050505b50505092915050565b60006101208201905061201e600083018c6118d4565b8181036020830152612030818b611f88565b90508181036040830152612044818a611f88565b905061205360608301896118d4565b81810360808301526120658188611f88565b905081810360a08301526120798187611f88565b905061208860c0830186611aeb565b61209560e083018561178c565b6120a3610100830184611a8f565b9a9950505050505050505050565b6000819050919050565b6120cc6120c78261171d565b6120b1565b82525050565b600081905092915050565b60006120e8826117b6565b6120f281856120d2565b93506121028185602086016117d2565b80840191505092915050565b600061211a82856120bb565b60208201915061212a82846120dd565b9150819050939250505056fea2646970667358221220e732d095eab2c0e508146cfbc4ea2d04284e1dd7ff444bc3f4ff7c182e88464b64736f6c63430008090033",
  "linkReferences": {},
  "deployedLinkReferences": {}
}